:10000000381000204D2200005D4000003922000021
:100010003922000039220000392200003922000074
:1000200000000000000000000000000005230000A8
:100030003922000000000000A52200003922000043
:100040005924000059240000592400004D060000E6
:1000500059240000592400005924000059240000AC
:10006000592400005924000059240000592400009C
:10007000592400005924000059240000592400008C
:10008000592400005924000059240000592400007C
:10009000592400005924000059240000592400006C
:1000A000592400005924000059240000592400005C
:1000B000592400005924000059240000592400004C
:1000C000592400005924000059240000592400003C
:1000D000592400005924000059240000592400002C
:1000E000592400005924000059240000592400001C
:1000F000592400005924000059240000592400000C
:1001000059240000592400005924000059240000FB
:1001100059240000592400005924000059240000EB
:1001200059240000592400005924000059240000DB
:1001300053B94AB9002908BF00281CBF4FF0FF314E
:100140004FF0FF3000F00CB8ADF1080C6DE904CEB3
:1001500000F01AF8DDF804E0DDE9022304B070478E
:10016000704700BF10F8012B11F8013B012A28BF8E
:100170009A42F7D0D01A7047034613F8012B002A91
:10018000FBD1181A013870472DE9F04786468C4696
:100190000846089E154674461946002B40F0C1805B
:1001A0008542B2FA82F245D94AB1C2F1200300FA7F
:1001B00002FC954094402EFA03F343EA0C0C4FEAFC
:1001C000154EA8B2230CBCFBFEF80EFB18CC08FBA6
:1001D00000F943EA0C43994528D9EB1808F1FF3799
:1001E00004D2994502D9A8F102072B44A3EB0903D5
:1001F000A4B2B3FBFEFC0EFB1C330CFB00F044EA84
:100200000344A04214D92C190CF1FF3304D2A042AC
:1002100002D9ACF102032C44241A43EA07401EB170
:10022000D440002334607360BDE8F0874746DDE7C3
:100230006346F1E792BB431B01214FEA154EAFB273
:10024000200CB3FBFEFC0EFB1C330CFB07F840EA52
:100250000343984561D9EB180CF1FF3004D298455F
:1002600002D9ACF102002B44A3EB0803A4B2B3FB08
:10027000FEFC0EFB1C330CFB07F744EA0344A742C9
:100280004DD92C190CF1FF3304D2A74202D9ACF19D
:1002900002032C44E41B43EA0040C0E7C2F1200300
:1002A0009540944020FA03F12EFA03F34FEA154EDD
:1002B0009040AFB20343B1FBFEFC0EFB1C10190CC7
:1002C0000CFB07F841EA0041884522D969180CF176
:1002D000FF3004D2884502D9ACF102002944A1EBD9
:1002E00008019BB2B1FBFEFC0EFB1C110CFB07F7D7
:1002F00043EA01439F420ED9EB180CF1FF3104D2BF
:100300009F4202D9ACF102012B44DB1B41EA0041C0
:1003100093E76046E3E76146F7E76046A4E7634694
:10032000B8E7834206D916B9002108467CE7C6E93A
:1003300000E0F9E7B3FA83F78FB9834201D372453E
:1003400008D8BEEB020460EB030301209C461EB9F3
:10035000002169E73846FAE7C6E9004CF8E7C7F13B
:10036000200CBB400EFA07F522FA0CF42EFA0CF121
:10037000BA401C4320FA0CF3B8404FEA1449014339
:100380001FFA84FEB3FBF9F809FB18300B0C08FBCD
:100390000EFA43EA00439A4540D9E31808F1FF30CA
:1003A00004D29A4502D9A8F102002344A3EB0A0320
:1003B00089B2B3FBF9F809FB183308FB0EFE41EADA
:1003C00003418E452CD9611808F1FF3304D28E45C4
:1003D00002D9A8F10203214443EA0040A1EB0E0137
:1003E000A0FB02984145CE46434602D306D14D4577
:1003F00004D20138B9EB020E68EB0403002EA7D03B
:10040000B5EB0E0261EB030101FA0CFC22FA07F3D3
:10041000F9404CEA0303C6E9003199E74046C5E7D5
:100420004346D9E78368DB680BB1024918476FF090
:100430005700704700000020F8B5044608460D46F6
:10044000FFF79AFE00260746BE4206DB2A462168D1
:100450000548BDE8F84003F095BDA95DA3682046B6
:100460005B6898470136EFE7C053000073B5044658
:100470000D460E46A3681B6843B9002333702A4615
:100480002168084803F07EFD02B070BD20460DF1E2
:10049000070198470028F0D19DF8073006F8013B86
:1004A000E8E700BFD6530000F0B5A3B03E4802F025
:1004B0006FFC3E4C20603E4802F06AFC3D4D034616
:1004C0002860206830B93C4803F05CFD4FF0FF30F5
:1004D00023B0F0BD0BB93948F6E7FFF7A3FF20B111
:1004E00023683748196803F04DFD2868FFF79AFF25
:1004F00020B12B683248196803F044FD0926314FBA
:10050000236800963A461B68402102A803F048FA87
:10051000206802A9FFF790FF0021672004F041F84E
:10052000286812A9FFF7A2FF4FF48060002104F0B1
:1005300038F8013EE4D24FF41651234B234819609A
:1005400003F020FD2068FFF76DFF20B123681C48F1
:10055000196803F017FD2868FFF764FF20B12B68C6
:100560001748196803F00EFD0926164F23680096F8
:100570003A461B68402102A803F012FA206802A93B
:10058000FFF75AFF0021672004F00BF8286812A932
:10059000FFF76CFF4FF48060002104F002F8013E89
:1005A000E4D2002094E700BFF053000004020020D2
:1005B000F753000000020020FE5300001654000014
:1005C0002E5400004D540000000000206A5400002A
:1005D000014B1B68184700BF08000020014B186042
:1005E000704700BF0800002030B585B004460D46B6
:1005F00010220021684604F038F802238DF80230FA
:10060000044B2A4621466846019303F0F5F905B0EC
:1006100030BD00BFD105000080B505460E46174627
:10062000984602F065FF034604F092F80446DFF8AE
:100630001890424649F8003039463046A84754F8E9
:10064000090001F019FE00BF080000000021034B63
:100650000846DA68DB6802F0BFBB00BF00800044D8
:1006600008B500F067F801280ED10A4B04205A6E35
:100670004FF480230849520358BF084A4B6601F5DE
:100680001041086258BF536601F024F9BDE80840E4
:1006900003F090BC008000500090005000A000507B
:1006A0004FF400424FF0FF3108B5124B02209A661A
:1006B00002F1884202F5005319664FF6DF71596660
:1006C0000D49C1F8D000BFF34F8FBFF36F8F0820E3
:1006D000A1F54061C1F880014FF44031D96011614A
:1006E00000220320114601F02DFEBDE80840032042
:1006F00001F01ABE0090004000ED00E0014B0360E5
:100700000020704780510000014B1860704700BF07
:1007100010000020054B1860054B1B6F03F007030A
:10072000032B01D104F0E6B9704700BF1800002088
:1007300000800050024B1868C0F30740704700BFAC
:100740000080E00FB8B1036813F4E07F03F03F00CE
:10075000C3F382120AD0012A0DD1084B41B103F52F
:100760008053012282401A6000207047044BF5E755
:1007700003F50053F5E70E20704700BF6880005076
:100780006480005030B58BB06C46854D0FCD0FC4E2
:100790002B68844A2360FF238DF80130D2F84C3156
:1007A00013F4802340F0F080D2F850218DF801300E
:1007B0009DF801306C46FF2B08BF252368467A4D13
:1007C0008DF8013000F076FE322000F0B1FE0FCD42
:1007D0000FC40FCD0FC495E8030084E80300714BEC
:1007E000D3F84C21140337D5A3F5FE431C88B4F588
:1007F000807F28BF78248DF8194000F055FE04440E
:1008000084F3080469488DF81840FFF783FF6846B1
:1008100000F0A8FD322000F091FE6549654B0320F1
:10082000CDE9001300230125CDE902038020CDE9A5
:10083000045500F0E5FC052812D02946312000F0CF
:100840007BFB684600F060FF0146F9B9312000F0FB
:1008500073FB01200BB030BDD3F85041E4B2CAE7BE
:10086000554C2946236F312023F0070343F0010341
:10087000236700F061FB684600F046FF236F0146E6
:1008800023F0070343F002032367DEE701214A4C0C
:10089000352000F051FB002000F056FE00F0EAFE8B
:1008A000236F002023F0070343F00203236700F0C7
:1008B0000BFF236F23F4744343F4806323673F4BA0
:1008C000D3F8FC20D2015AD5D3F8FC2022F0807254
:1008D000C3F8FC20D4F88020C4F88020D3F8FC2092
:1008E00042F08072C3F8FC20334BD3F8202122F071
:1008F000030242F00102C3F82021D3F8242122F0A0
:10090000070242F00102C3F82421D3F8802122F02B
:10091000030242F00102C3F88021D3F8402122F003
:10092000030242F00202C3F84021D3F8602122F012
:10093000030242F00202C3F86021D3F8402222F001
:10094000030242F00202C3F84022D3F8002222F050
:10095000070242F00202C3F80022D3F8202222F05C
:10096000030242F00102C3F8202200F0E3FC4FF042
:10097000E0221369002043F0040313616AE7D4F80E
:100980008030C4F88030AFE74FF07E6393F89C204E
:1009900093F99C30002BFFF60BAF8DF8012007E791
:1009A000145100000080E00F2851000000F04902BF
:1009B00000E09304FF0E7F070080005000ED00E090
:1009C0001FB500241B4B18689A880290D3F80600C4
:1009D0009B7A00901848ADF80C208DF8043003F095
:1009E000E1FA02A88DF808408DF80C4001F04EF9AC
:1009F000694601208DF8004001F004F94FF0B04243
:100A000040F2FF31936923F47F7323F00303936172
:100A10000A4B5961936A13F00803FBD1136201205A
:100A200001F00AF90C2001F02FFA0C2003F00AFB68
:100A300004B010BD6C5100008C5100000020005823
:100A400010B504F060FB4FF0B04304465B695A06F2
:100A5000074A03F0010003F0510348BF40F00200D1
:100A6000536104F0EBF92046BDE8104004F046BBAA
:100A70000020005870B504F046FB144E054634784B
:100A8000FCB9134B1C60134B1C60134B1C60FFF72D
:100A900097FF012004F0CEFA04F084F80F4B0246D1
:100AA000186020B9284604F029FB232070BD234696
:100AB00040F2E7310A48FFF73BFB0A4B186001237D
:100AC0003370284604F01AFB0020EFE7EA0200200A
:100AD000100200200C020020180200201402002046
:100AE00018FCFFFF08020020044BD3F88420D20634
:100AF000FBD4D3F88400C0F381107047004000504D
:100B000038B5184B0546D3F824010C4600F0070011
:100B1000062823D8DFE800F0040A121A1E0E160079
:100B2000012305B1286004B1236038BD03F0C2FF82
:100B30000523F6E703F0BEFF0623F2E703F0F4FF18
:100B40000323EEE703F0F0FF0423EAE703F0E8FFF6
:100B50000223E6E704F006FA0723E2E7002318463B
:100B6000DFE700BF0080005038B5104B0546D3F8D2
:100B700000310C4603F00303022B0BD0032B0DD0E6
:100B8000012B0FD103F0D0FF032305B1286004B17E
:100B9000236038BD03F0CEFF0823F6E704F0E2F946
:100BA0000723F2E701230020EFE700BF0080005099
:100BB00038B5104B0546D3F820310C4603F003033B
:100BC000022B0BD0032B0DD0012B0FD103F072FFA2
:100BD000052305B1286004B1236038BD03F0A4FFEC
:100BE0000323F6E703F09CFF0223F2E70123002032
:100BF000EFE700BF0080005038B5104B0546D3F832
:100C000040310C4603F00303022B0BD0032B0DD015
:100C1000012B0FD104F0A8F9092305B1286004B114
:100C2000236038BD03F086FF0823F6E704F09FF940
:100C30000B23F2E701230020EFE700BF0080005004
:100C400038B5104B0546D3F860310C4603F003036A
:100C5000022B0BD0032B0DD0012B0FD104F084F904
:100C6000092305B1286004B1236038BD03F062FF99
:100C70000823F6E704F07BF90B23F2E701230020B9
:100C8000EFE700BF008000502E4B98424AD022D898
:100C90002D4B984240D014D82C4B984239D00AD8CA
:100CA0002B4B984232D02B4B98422FD02A4B984254
:100CB0002CD000207047294B9842FAD1284B186F4E
:100CC0007047284B98422AD0274B9842F1D1244BA9
:100CD000D3F880007047254B98422BD009D8244B7D
:100CE000984223D0234B9842E3D11D4BD3F88C007C
:100CF0007047214B984221D003F5740303F510533C
:100D00009842D6D1164BD3F898007047144B986D83
:100D10007047134B586E7047114B586F7047104B0C
:100D2000986F70470E4BD3F8840070470C4BD3F884
:100D3000880070470A4BD3F890007047084BD3F8EF
:100D4000940070470048E8010024F400C0CF6A0016
:100D500080841E0000093D0040420F00405DC60037
:100D60000080E00FC0EA210180BA8C01007E5603AA
:100D700080D54302006CDC020090D00373B50D46B1
:100D800000210E4B0191D3F88041064604F0030484
:100D9000012C09D0022C0CD00C460EB1019B336003
:100DA00005B12C6002B070BD01A8FFF701FF0F2450
:100DB000F3E703F0B5FE0190EFE700BF00800050BD
:100DC00038B5104B0546D3F840320C4603F0030308
:100DD000022B0BD0032B0DD0012B0FD104F0C4F844
:100DE000092305B1286004B1236038BD03F0A2FED9
:100DF0000823F6E704F0BBF80B23F2E700231846BC
:100E0000EFE700BF0080005038B5144B0546D3F81B
:100E100000020C4600F0070004281BD8DFE800F0B1
:100E200003090D111500012305B1286004B12360E9
:100E300038BD04F099F80923F6E703F07BFE082398
:100E4000F2E704F094F80B23EEE703F053FE0E23D1
:100E5000800AE9E700231846E6E700BF008000505B
:100E600010B40C4C0B46D4F8204204F00304012CBF
:100E700009D0022C0AD008B1002101600BB1002278
:100E80001A6010BC704710BCFFF792BE10BCFFF791
:100E9000B3BE00BF00800050B0F5207F1FD009D83E
:100EA000B0F5007F15D003D868B1B0F5C07F0AD087
:100EB00000200CE0B0F5607FFAD10B4BD3F8800036
:100EC000C0F3011003E0084B186FC0F3033001308A
:100ED0007047054BD3F89000C0F30460F7E7024B6E
:100EE000186FC0F38020F2E7008000504FF400320A
:100EF0000E4B014610B500209A66FFF7CDFF484320
:100F000041F671320A490B4B884294BF0020012000
:100F1000DC69DA639A6822F4401242EA00529A606D
:100F2000E20344BF0022DA6310BD00BF009000500E
:100F3000005A620200000350420910B50FD0012A86
:100F40000FD00A4B0A4C022A18BF234600F01F009C
:100F500049B103F58053012282401A6010BD134647
:100F6000F4E7044BF2E703F50053F4E76880005020
:100F700060820050648000501FB50021B0F5807F72
:100F80000446019100F0068100F29D80612800F284
:100F900095801F2805D8002840F0928003F0AAFD14
:100FA000DCE0A0F12004412C00F28A8001A353F878
:100FB00024F000BF9D0F0000611100009D0F000094
:100FC00061110000811100008111000081110000F9
:100FD0008111000061110000611100003B1100004F
:100FE000F5100000B7110000C1110000F51000005D
:100FF000611100006111000061110000C1100000CA
:10100000C1100000C1100000C1100000C11000009C
:10101000C11000008B1100001711000061110000C9
:101020006111000061110000D5110000CB1100001A
:1010300061110000C1100000C1100000C1100000CB
:10104000C1100000C1100000C1100000C11000005C
:10105000C1100000C1100000C1100000C11000004C
:10106000C1100000C11000009D0F0000C110000061
:101070009D0F00009D0F00009D0F000081110000DA
:10108000C1100000C1100000C1100000C11000001C
:10109000C1100000C1100000C1100000C11000000C
:1010A000C1100000C1100000C1100000C1100000FC
:1010B000C11000009D0F00009D0F000080284BD044
:1010C000019804B010BDB0F5A06F5ED028D8B0F57F
:1010D000607F50D019D8B0F5007F4CD004D8B0F55F
:1010E000C07F3FF45BAFEBE7B0F5207F38D0B0F5C1
:1010F000407FE5D103F0FEFC02464FF42070FFF77D
:10110000CBFEB2FBF0F2520833E0B0F5806F37D07F
:10111000B0F5906FD4D1002101A8FFF7F1FCCFE723
:10112000B0F5E06F51D00DD8B0F5C06F43D0B0F539
:10113000D06F45D0B0F5B06FC2D1002101A8FFF744
:101140001DFEBDE7B0F5F06F44D0B0F5086FB7D124
:1011500001A8FFF709FDB3E703F0B2FC0190AFE788
:1011600003F0C8FC02464FF42070FFF795FEB2FB77
:10117000F0F20192A4E703F0A3FC02462046F4E754
:10118000002101A8FFF714FD9AE7002101A8FFF74D
:1011900067FE95E74FF0E02302911B695B0705D5D9
:1011A00003F0A8FC0290029B019389E703A902A81F
:1011B000FFF722FDF7E7002101A8FFF71DFD7FE7FC
:1011C000002101A8FFF720FE7AE7002101A8FFF720
:1011D000F7FD75E7002101A8FFF732FD70E700BFBA
:1011E00008B58020FFF7C8FE034B98429EBF4FF41E
:1011F0008032024B1A6708BD005A620200A00050FC
:101200001FB503460020B3F5807F01906FD027D82B
:10121000382B00F082800BD8243B092B0FD8092BE8
:101220000DD8DFE803F05F5F5F5F0C0C5A0C36757A
:10123000522B57D007D83D2B3AD03E2B72D0019875
:1012400005B05DF804FB802BF9D1394B1B6F03F01F
:101250000703013B032BF2D8DFE803F03D36393BAF
:10126000B3F5D06F54D019D8B3F5A06F55D00AD8C4
:10127000B3F5806F36D0B3F5906FE0D1002001A9AF
:10128000FFF73EFCDBE7B3F5B06F26D0B3F5C06FD8
:10129000D5D1002001A9FFF7AFFCD0E7B3F5006F6F
:1012A000ECD00AD8B3F5E06F3CD0B3F5F06FC6D1FF
:1012B000002001A9FFF7C4FCC1E7B3F5086FBED158
:1012C00001A9FFF751FCBAE705230193B7E7032310
:1012D000FBE70723F9E70223F7E7002001A9FFF75F
:1012E0004DFDACE7002001A9FFF762FCA7E74FF036
:1012F000E02302901B695B0705D503F0FBFB0C2381
:101300000393039BE1E703A902A8FFF775FCF8E745
:10131000002001A9FFF778FD91E7002001A9FFF760
:101320009FFD8CE7002001A9FFF74AFD87E700BF7A
:10133000008000504FF48032074B0849586E03F587
:1013400080535A660B6A23F001030B62C3035CBF30
:10135000034B5A66704700BF0080005000C0075022
:1013600000A0005010B504468020FFF749FF032875
:101370007FD04FF40022464B02215A6645F60E03F9
:10138000444AC2F88030444B9962012103F58053EE
:101390009962936DD903FCD4D4E900131B0543EA89
:1013A0000163E17B0B43217B43EA0143617B43EA19
:1013B0000133A17B43EA811313619169D4E90403EA
:1013C0001B0643EA806301F000410B43A17E0B43FF
:1013D000217E43EA0143617E43EA01239361136A5C
:1013E000E16923F00D030B43003918BF0121E07EB2
:1013F00043EA800343EAC1031362E36994F82000DF
:10140000002B37D194F82130916A1B0121F0330170
:1014100043EA40130B4343F0010393621F491D4B02
:101420009A6D31EA0202FBD102221B498A621A65D7
:101430009A6D5200FCD41A69A16822F4700242EA43
:1014400001521A614FF00042134B9A6194F8223016
:1014500013B90222124B9A6294F8233013B9012275
:101460000F4B9A6294F824301BB10A4B0D4AC3F813
:10147000802010BD936A94F8231023F033030B43AC
:1014800094F8221043EA401343EA41039362E9E7E8
:101490000090005000C0005000D0005003000140F8
:1014A00000E00050F1A7FFFF014B93F900007047E7
:1014B000EC0200204FF480011B4A437810B55166BE
:1014C0004FF4D151022402F5B832516217494F2B23
:1014D0004C604FF0010428BF4F2301F580514C6050
:1014E0001169C903FCD4017843EA01235361D0E9AF
:1014F00001131B0143EA0123417B0B43017B43EAB8
:1015000041039360C37B817B1B0143EA4113417C10
:101510000B43017C43EA41035360837C13B16FF4B6
:10152000D153536210BD00BF009000500010025014
:10153000014B1880704700BF4E000020014B1880FF
:10154000704700BF4C0000204FF4001208B5184B44
:101550005A660223174A5360936813F48033FBD111
:10156000012822D103F0E0FA134B984215D003F57D
:10157000122303F5F863984213D0104B00EB80025E
:10158000400AB3FBF0F3520A0A49CA620B63012313
:101590004B620022074B5A6008BD45F67A13084A91
:1015A000F2E745F61A03074AEEE75362F1E700BF98
:1015B000009000500040025000F0490264666666E8
:1015C000D8B80500BBCF0500B0F5207F10B50C469C
:1015D00042D008D8B0F5007F33D003D888B1B0F539
:1015E000C07F0ED010BDB0F5607FFBD11F4A4C1EEE
:1015F000D2F8803023F0300343EA0413C2F880307D
:10160000F0E702F0D9FC02F0E5FC4FF48031184B12
:10161000164A1967136F013C23F4704343EA0433FD
:10162000136703F067FA0446FFF75EFAC0F10201A0
:10163000204602F0C9FC00F035F8BDE81040FFF785
:10164000CFBD0A4A4C1ED2F8903023F0F85343EA3B
:101650000463C2F89030C5E7044A4C1E136F23F4AC
:10166000806343EA84231367BCE700BF0080005017
:101670000090005008B50121022000F03BF94FF422
:101680002070FFF709FC054B187002F095FC02F082
:10169000A1FC4FF48032024B1A6708BDEB02002018
:1016A0000090005008B54FF4C070FFF765FCBDE82E
:1016B00008400449884294BF012102214FF4207060
:1016C000FFF782BF80F0FA0238B5044603F012FA41
:1016D0000546FFF709FAC0F10201284602F074FC42
:1016E0000121002000F046F92CB1FFF7DBFFBDE837
:1016F0003840FFF775BD034B4FF420701978FFF7A2
:1017000063FFF4E7EB0200204FF4C02201212DE932
:10171000F0410746684B5A66684A03F598335C689F
:1017200051609D6915F00305FBD13E68FFF7DCF9B8
:10173000012805D1624B9E4202D90020BDE8F0810C
:10174000604A002311461068864202D350688642E0
:1017500005D90133192B02F11002F4D1002301EB5A
:101760000313D3E9028028B1FFF78EFA00F07F005F
:1017700048EA00088020FFF743FD05287AD102F0EF
:101780001BFC02F027FC4FF480324B4B4FF4C0702F
:101790001A67FFF781FB0128054667D102214FF444
:1017A000C070FFF711FF0126474BDA6812F0060FF1
:1017B000FBD19968C3F808809A6882EA080212F49B
:1017C000F81F6BD1BA88FB8843EA02433F4AD360D3
:1017D000BB68032B50D1A2F5A032D2F8003123F020
:1017E000030343F00103C2F800317B7D3A7D9B0186
:1017F00043EA82033A6913433A7B43EA4203334A9A
:1018000093603868FEF780FF002707222B4B1A6190
:101810000122A3F580535A60A3F580531C6914F08C
:101820000704FBD08020FFF7EBFC052817D126B179
:1018300029464FF4C070FFF7C7FE03F05BF9054679
:1018400003F038F903F036F9FFF74EF9C0F1020161
:10185000284602F0B9FBFFF725FFFFF7C1FC002F78
:101860007FF46BAF631E5842584167E7022801D1ED
:10187000042194E7002697E7082B07D1144AD2F8F1
:10188000003123F0030343F00203ACE7072BACD194
:101890000F4AD2F8003143F00303A4E714F0010427
:1018A000996001D00127B0E78020FFF7A9FC052847
:1018B0007FF443AF0127BAE70090005000E00150E9
:1018C000005A6202905100000000015000C0015017
:1018D0000080005007B56B46054A1068516803C385
:1018E000684600F0BBF8002003B05DF804FB00BFC1
:1018F00077510000F8B504461C4BD3F88420D1067C
:10190000FBD4D3F88430C3F381139C422CD003F072
:10191000D7F8012C064602D1214602F055FB03F010
:10192000E9FB4FF00072124B07465A66204602F060
:1019300056FB4FF480630D4D621E93402B676B6E18
:101940009A0103D4D5F884309B060AD5384603F0B3
:10195000CCFB022C08D13046BDE8F840002102F053
:1019600033BBD5F88430EAE7F8BD00BF0040005033
:101970000060005010B50C4608B903F0A1F8074B01
:1019800021461B783BB1064B984204D80120BDE8A4
:101990001040FFF7AFBF0220F9E700BFED020020C3
:1019A000005A62024FF0004238B5264B26495A666B
:1019B00001224A604AF6CD3103F50B235D6C1964B0
:1019C000154030BB9968C9070BD4002401221F4B76
:1019D0005A6015B11E4B1F4A1A6402F001FB2046E3
:1019E00038BD1A498A601C4AD96ACC0705D490428E
:1019F00001D10724EAE70130F6E79042E5D1F8E7A4
:101A00000132DC6A14F0080406D08A42F8D10724B7
:101A1000DFE700221049F4E78A42F8D020220B4B7E
:101A20000B495A620122A3F580539A6023460A4A61
:101A3000486A800603D49342E9D00133F8E7934221
:101A4000C7D1E4E7009000500050095000600950F1
:101A5000004009503254FFFF40420F004FF0004257
:101A600038B5174B174C5A66012203F50C235A6000
:101A70004AF6CD33656C2364437893401343124A8E
:101A8000D363C3788178A2689B0043EA011322F0F4
:101A900074021343A3600279837943EA022323612A
:101AA0004279C37943EA022363610078FFF77AFF42
:101AB000EB0744BF054B236402F092FA012038BDC6
:101AC0000090005000400950004000503254FFFF89
:101AD000072A2DE9F041154698464FF0030401F01E
:101AE00003072DD89600B44000FA06F221461C48A0
:101AF00002F077FA21461B4807FA06F202F071FA63
:101B0000194B1A499DF81800B8F1000F18BF194673
:101B1000012303FA05F50D60154B1649002818BF7F
:101B20000B461D60144B1031C3F820549DF81C0067
:101B300003F22443002818BF0B461D60BDE8F08166
:101B4000A2F10806B600B44000FA06F221460B489E
:101B500002F047FA21460A4807FA06F2CEE700BF2C
:101B600000C4035008C4035010D4035010E40350C1
:101B700014E4035014D4035000E0035004C4035091
:101B80000CC40350F8B504460D461F4616464AB12C
:101B900001238B403021184A01FB0022F7B141F2AA
:101BA0001001535004EB4403072D4FF00F014FEA8F
:101BB000031316D8A80006FA00F281400F48184413
:101BC00002F00FFA4EB9012330210B4AAB4001FB62
:101BD000042277B141F210015350F8BD42F21001D6
:101BE000DFE7A5F10800800006FA00F28140044812
:101BF000E5E742F21001EFE700C0035004C00350D4
:101C00000CC00350CB784A785B0143EA82030A7820
:101C100013430A7943EA02130C22424302F1B04211
:101C200013630B78012B02BF8A78024B43F8202004
:101C3000704700BFE880035008B54FF0B0435A68C2
:101C40006AB958B15B680BB102F0DAF901210D4BAA
:101C5000596002F0D5F94FF0B043D96008BD5B6818
:101C60000BB102F0CDF90028F0D102F0C9F94FF024
:101C7000B0430222DA6002F0C3F90122024B5A603B
:101C8000ECE700BF00100058002000584FF0B041B2
:101C900010B54B680BB102F0B3F901220B4B5A603F
:101CA0008378C478934043EA8403447823430479D7
:101CB00043EA0413447943EAC4038B60044B5A603B
:101CC0000378C3F10203CB6010BD00BF00200058B1
:101CD0000010005870B5054616461C4621B94FF451
:101CE0002070FFF749F90146402C1BD003D8DCB126
:101CF000202C1BD070BD602CFCD1042303FB06F20A
:101D0000530803EB4113B3FBF2F3094A203B02EA09
:101D1000C303AA6822F06002AA60AA681443AC60F8
:101D2000EB61E7E70623E9E71023E7E70823E5E7A8
:101D3000F8FF7F00012200F580535A6040F6AA6345
:101D400041F20502436100230B498360C365C26011
:101D500000F500520361C361C36491640749836560
:101D6000884203D103650023436502E004498842A9
:101D7000F8D0012353607047FFFF010000C00550F9
:101D80000000065070B50D46FFF7D4FF012300F5A3
:101D900080567360AB7C04461BB1836843F080437C
:101DA0008360EB7C5BB1354A2B7D94424CD1A2F52C
:101DB0001032C2F88C31E36D43F08003E3652A8A68
:101DC0006B7B20461343EA891343E3602B7BD5E901
:101DD0000112FFF77FFF6B7D1BB1A36843F48033D3
:101DE000A360AB7D1BB1A36843F40043A360EB7D0C
:101DF0002A7E1B07120502F4E00203F0E0431343BE
:101E0000A3656B7E1D4A023B012B1D4B26D89442D5
:101E100022D002F5804294420CBF01224FF0FF32E3
:101E200003EB421341F21C62022199506B7E03F0D6
:101E3000FD03012B4FF0040316BF04F50052F365B8
:101E4000D3652B78636170BD0E4A944204BFA2F53E
:101E50002032C2F89C31AEE70022E1E794420AD07A
:101E6000084A94420CBF01224FF0FF3203EB4213A9
:101E700042F21C62D8E70022F8E700BF00C005501C
:101E800000C003500000065040B2002808DB0122C9
:101E90004309044900F01F008240603341F82320C9
:101EA000704700BF00E100E030BFFFF7FDBF00BF9B
:101EB0002DE9F04105460B4EDFF82C80324606EB4B
:101EC0000807CC1B2046094902F0C2FBA019424674
:101ED0000021083C02F0C9FB2C6707F10800BDE8AF
:101EE000F08100BF0000000004000000125100005B
:101EF000054B5A699B689A421FBF044A536843F0D6
:101F000080535360704700BFB802002000ED00E02E
:101F10001B4BD3F8E820D3F8E420D3F8E420D10712
:101F200022D4D3F8E420920720D4D3F8E420510738
:101F30001ED4D3F8E42012071CD4D3F8E420D10631
:101F40001AD4D3F8E420920618D4D3F8E43013F06E
:101F5000800F14BF2C202520094AD2F8E43043F02A
:101F6000FF03C2F8E43070472620F5E72720F3E7A7
:101F70002820F1E72920EFE72A20EDE72B20EBE7E7
:101F800000ED00E0154B9A6A12F0007F9A6A14BFC8
:101F90001E201D2012F0807F9A6A18BF1F2012F4A5
:101FA000801F9A6A18BF022012F4002F9A6A18BF85
:101FB000212012F4802F9A6A18BF222012F4003FC9
:101FC0009A6A18BF232012F4803F9A6A18BF24200F
:101FD0006FEA02426FEA12429A62704700ED00E037
:101FE00010B5194B0246986A9C6A10F4805F14BFC2
:101FF0001720162014F4006F9C6A18BF1820A4053F
:1020000009D5986B986A000404D51AB19A6A22F42B
:1020100000429A6219200C4B9A6A12F4806F9A6AF5
:1020200018BF1A20D2050CD49B6A13F4005F18BFA6
:102030001C20054A936A43F47F43936200230B708C
:1020400010BD1B20F5E700BF00ED00E010B51C4BF4
:102050000246986A9C6A10F0100F14BF11201020DD
:1020600014F0080F9C6A18BF1220A40709D5586BFA
:10207000986A000604D51AB19A6A22F080029A6220
:1020800013200F4B9A6A12F0010F9A6A18BF14209E
:1020900012F0200F9A6A18BF1520D40658BF9B6A09
:1020A000074B9A6A920642BF5A6A22F400525A6259
:1020B0009A6A42F0FF029A6200230B7010BD00BFC3
:1020C00000ED00E0F0B5534B04465B6800268BB092
:1020D000C3F3080386F31188BFF36F8F02F07F40CC
:1020E000B0F17F4F21D112F001051FD0550602F04B
:1020F000080002D5B0B9012506E082F00402C2F35F
:10210000800560B1EFF389840022033B8DF807203E
:10211000042B0DD8DFE803F02C7175676E00EFF328
:102120008884F1E70C463546EEE735462C46EBE76A
:1021300000239DF80720CAB902AE04F120073246F9
:1021400020686168083403C2BC421646F7D1099A78
:10215000002D5AD0C2F3080121B96FEA52226FEA6A
:1021600042220992184602A901F06EFF0BB0F0BDA1
:10217000284BDA6A9107DBD4DA6A002AD8DBDA6AFC
:102180005200D5D55A69A16942F480725A61BFF3F1
:102190004F8FBFF36F8F5A6931F8021C22F480729F
:1021A0005A61BFF34F8FBFF36F8F4DF602729142AA
:1021B00001D12368BDE79A6AD2B232B101200DF194
:1021C0000701FFF743FF0346B3E79A6A12F47F4F14
:1021D00005D001200DF10701FFF702FFF3E79A6A2E
:1021E000B2F5803F02D3FFF7CDFEECE7D3F8E43041
:1021F000002B9DD0FFF78CFEE5E700200DF10701D5
:10220000DFE700200DF10701E6E722F4FF7222F07C
:102210000102A6E700ED00E0064B5A6942F0100209
:102220005A615A6942F480625A615A6922F008027E
:102230005A61704700ED00E0EFF30880EFF3098189
:1022400001B57246FFF73EFF01BD00BF102080F3CD
:10225000118808484FF40061401880F30988EFF3B3
:1022600014800221084380F31488BFF36F8F00F0BD
:102270007FF80000F8020020084B9B6883420BD1D6
:10228000EFF3058343B1064B5A6842F080525A601F
:102290005A6A22F400425A6201F030B9B8020020B2
:1022A00000ED00E014498A684FF030001044EFF36D
:1022B000098C80E8F01F102080F31288BFF36F8F25
:1022C0000E4F4FF000664A698A603E60106F0C4CFA
:1022D0002060506F0023536780F3118802F13000B3
:1022E00090E8F01F8CF3098802F1000004B501F0BA
:1022F000C0FEBDE804407047B802002004ED00E0D5
:102300001C0200201EF0040F0CBFEFF30880EFF357
:102310000980816911F8021C0229FFD001B57246BB
:1023200001F098FE01BD00BF40B2002807DB012389
:102330004109034A00F01F00834042F821307047F2
:1023400000E100E040B2002801F10101ACBF00F162
:102350006040064B4FEA0111C9B2ABBF00F56140C6
:1023600000F00F0080F800131954704714ED00E0DE
:1023700008B5FEF795F90F4A0F4B22F07F029A60DD
:10238000BFF34F8FBFF36F8FD3F8882022F4700212
:10239000C3F88820EFF3148323F0040383F3148835
:1023A000BFF36F8F00F0BAFD01F0BEF900F048F8FE
:1023B00000F0F4FD0000000000ED00E042F8203CD9
:1023C000009B0B4942F81C3C019B21F0010142F8A3
:1023D000183C029B42F8081C42F8143C4FF08073F2
:1023E00042F8043C0023203A02654367704700BF6F
:1023F0001906000000B50B4B15469860026F0A4B9A
:102400000E461A60036E83F30B882C4686F3098808
:102410000020064B98472046002100220023044C50
:10242000204700BFB80200201C0200207B400000B3
:10243000190600001022014B1A61704700ED00E000
:10244000002310210348C21801333C2B82F80013EB
:10245000F9D1704700E100E008B5EFF30583064AC3
:10246000103B02EBC30152F8330049688847BDE8CE
:102470000840FFF73DBD00BF244800001FB5094CD0
:10248000094A23460121094800F0FAF80023039382
:10249000074B0121E41A01A80193029400F0FAF815
:1024A00004B010BD00800020000000202053000078
:1024B0006000002010B50C7A0B6804F01F0223F0B6
:1024C0001F031A43CB68640923F01F03054943EA3D
:1024D000440343F00103C1F89800C1F89C20C1F8FF
:1024E000A03010BD00ED00E010B5074BD3F89030E0
:1024F000C3F30723013B984202D8FFF7DBFF10BD6F
:102500006FF01500FBE700BF00ED00E02DE9F04F94
:102510000F46144606464FF000084D4D85B0B845AD
:1025200080F29280D6F80490B9F1000F36D0B9F15C
:102530001F0F40F2878019F01F0F40F08380D6F8FC
:1025400000A01AF01F0F7DD1504601F0AAFD83466E
:1025500009EB0A00013801F0A4FD834572D11BF19B
:10256000160F6FD05C456DDDC5F898B0D5F89C109E
:10257000C5F898B0D5F8A03021F01F0143F01F0A2C
:10258000D6E900321A44994202F1FF391ED1CA45F8
:1025900008D131465FFA8BF001F08CFD08F101089B
:1025A0000C36BCE73146C5F898B0D5F89C3022F01F
:1025B0001F0203F01F031343C5F89C30E0B201F083
:1025C00079FD10F1160F3DD0441CE7E7C5F898B02F
:1025D000D5F8A020013B23F01F0302F01F02134394
:1025E000CA453146E0B2C5F8A030E8D001F062FD3E
:1025F00010F1160F26D0C5F898B0D5F89C209DF89C
:1026000008300AF1FF3A62F304038DF80830D5F878
:10261000A0309DF808205B0863F347128DF808206E
:10262000D6E900321344009323F01F035344A3EB75
:102630000903013023F01F036946C0B20393FFF77B
:1026400053FFBEE76FF01504204605B0BDE8F08FDC
:1026500000ED00E00522044BC3F89420BFF34F8F38
:10266000BFF36F8F704700BF00ED00E0BFF35F8FD7
:102670000022024BC3F89420704700BF00ED00E039
:1026800010B5034C2278FFF741FF207010BD00BF4A
:10269000EE0200202DE9F74F294D8A4606464FF0FD
:1026A0000008AB46274FD0451BDAD6F80490B9F1A5
:1026B000000F3FD031680846019101F0F2FC01990A
:1026C000044609EB0100013801F0EBFC84424FF0B5
:1026D00014021D4B08D002FB08F36FF015024BF8F3
:1026E000032003B0BDE8F08F14F1160F2C60F8D072
:1026F0001978A142F5DD02FB08B0C7F89840C7F889
:102700009840D7F89C4000F10801007B64F3040076
:102710000871D7F8A0000C79400860F347140C71D9
:10272000D7F89C1021F01F016960D7F8A01021F0A4
:102730001F01296108F1010814350C36B3E700BF09
:102740002002002000ED00E0EE020020F0B541493B
:10275000414CD1F890302568C3F307239D4287B0E0
:1027600075D80020FFF782FF3C4BC1F8C03085428E
:1027700016D13B4C01A82570FDF7C0FF0025064689
:10278000384FAE4213D1002023783249D1F890203F
:10279000C2F30722934254DBFFF75CFF00202FE0D7
:1027A000616801EB0011FFF785FE0130DFE7019959
:1027B000280101EB0513DA683A40B2F5001F21D079
:1027C000B2F5800F2BD0B2F5801F38D15A689B68C4
:1027D0000958013B22F01F0003440120844623F0E6
:1027E0001F0340EA4C10CDE902218DF8100002A928
:1027F00020780593FFF778FE00281DDA6FF01500AA
:1028000007B0F0BD5A689B680958013B22F01F00D1
:1028100003444FF0020C012023F01F03E1E75A6844
:102820009B680958013B22F01F0003444FF0000C45
:10283000062023F01F03D4E72378013323700135EA
:102840009FE7C1F89830C1F8A00001339EE74FF030
:10285000FF30D5E700ED00E02C530000AAFF440054
:10286000EE0200200000F0FF08B5024B1B689847FD
:10287000002008BD34020020034B044A18609378FE
:1028800043F0020393707047340200201C000020C4
:1028900008B50649064821F00701C1F1005202F5CA
:1028A000004201F030FB002008BD00BF3F100020B7
:1028B0003802002008B5074801F0F3FD38B106489A
:1028C000FFF7DAFF0448FDF789FE002008BD6FF02E
:1028D0001200FBE7D4470000DD2800000A2838B5C5
:1028E0000446074D04D1AB680D2128465B68984724
:1028F000AB6803485B68E1B29847204638BD00BF2B
:10290000D447000073B5B2F5800F0E4644681946EF
:1029100005692BD0B2F5001F0BD10123164AB34035
:10292000C2F82434EC6824EA03040020EC6002B00E
:1029300070BD124BD3F82404F04010F0010318D1FD
:10294000B1F1007F10D0B1F1806118BF01210123E6
:10295000207901243246CDE900143146FFF7B8F85A
:10296000EB68B4401C43E0E70121F1E76FF085001C
:10297000DDE76FF00F00DAE700E0035000C003501E
:1029800010B5002401213A20FEF7D6FA094B224661
:1029900002211A201C61FFF7D5FC224602211920D2
:1029A000FFF7D0FC1A20FFF7BFFC1920FFF7BCFC93
:1029B000204610BD74020020034B1A69511C43F8D5
:1029C0002200196100207047740200202DE9F047B1
:1029D0000027164BD0F81080D3F82054DFF850A011
:1029E0001DB1D8F81030BB4201D8BDE8F08758F8C7
:1029F0002790D9F81030DC682C4007D0CAF8204462
:102A0000596809B10E6819B925EA04050137E7E7E5
:102A10008A68224002D048464B6898471EB1336806
:102A200031461E46EFE73346FAE700BF00C00350C9
:102A300000E00350034B1A69511C43F8220019614E
:102A40000020704774020020034B1A69511C43F8A0
:102A50002200196100207047740200202DE9F04126
:102A6000044604271F4EDFF8808000EBC105AC420E
:102A700002D10020BDE8F0812379A279AA2B15D1DB
:102A8000D3004FF0FF324FF0FF319A40C3F11C03E7
:102A900021FA03F31A406179534213404B43134028
:102AA00022884244920013600834E0E7E379E17839
:102AB000A078FFF767F8E278A1782388120402F47F
:102AC00070220A43334461799B0017FB01310A608D
:102AD0002179FF29E8D0012218688A4002431A6050
:102AE000E2E700BF10F10014C8F000148C46F0B506
:102AF00043682E4D1F6989B0036901AC1E680FCD74
:102B00000FC495E807009CF8043084E80700033BF5
:102B1000012B47D99CF80730023B012B42D99CE896
:102B2000030086E8030003903379012B19D09A1E25
:102B3000534253415B02ADF812307379032B8EBFC1
:102B40004FF480531B039BB2ADF81430B279337944
:102B5000022A09D0042A23D0002B14BF0623052300
:102B600006E04FF44073E6E7002B14BF052304236F
:102B70008DF81130F3790021012B0CBF03230023C2
:102B800038468DF81D3001F043FA384601A9FFF7A9
:102B9000F9F83846052101F03BFA002009B0F0BDF4
:102BA0000623E5E76FF05700F8E700BF505100003B
:102BB000F0B5DFF8C8C0036989B001AC45681E688C
:102BC0000746BCE80F000FC49CE8070084E8070034
:102BD000686805F1080183681B689847002848DB8E
:102BE0006A460021286801F06EFB002841DB009B4B
:102BF000002219791868FFF731FF002839DB3368A4
:102C000003933379012B19D09A1E534253415B022F
:102C1000ADF812307379032B8EBF4FF480531B0332
:102C20009BB2ADF81430B2793379022A09D0042A64
:102C300021D0002B14BF0623052306E04FF4407378
:102C4000E6E7002B14BF052304238DF81130F37938
:102C500001A9002B18BF03238DF81D302869FFF749
:102C600091F838466B6998472869052101F0D0F939
:102C7000002009B0F0BD0623E7E700BF5051000077
:102C8000002213B511460C20FFF75CFBFDF7F2FEA6
:102C900002F0CEF8154B164C18606FF00043002878
:102CA000B8BF00F2FF308012B3FBF0F36360012382
:102CB0002060237302F00DFA04F10803D3E8EF2F2C
:102CC000C3E8E10F0029F9D100232046CDE9003304
:102CD000084A234650F8101B02F0D7F9002814BF09
:102CE0006FF01200002002B010BD00BF40000020B5
:102CF000880200207144000037B5431C04BF184B04
:102D00005868002828DD164B5C68844228BF0446BA
:102D1000EFF31185102383F31288BFF36F8F02F056
:102D2000D8F9104AD2E8AF1F52F8082C431A54437E
:102D300004339C4212D30023CDE90033084B091A17
:102D4000094A214403F1100002F080F985F311884B
:102D5000BFF36F8F03B030BD0024D9E71444E8E718
:102D600088020020900200207144000010B5074C3A
:102D7000207B48B102F0ADF904F10803D3E8AF3F7E
:102D8000C01A2368B0FBF3F010BD00BF880200201A
:102D900070B5044688B10378C3B10D4D0D4EB542F0
:102DA00001D3002409E02968A14208D1284601F096
:102DB00078FB002814BF2C460024204670BD204616
:102DC000FDF7D0F90028F1D01435E8E71C46F4E708
:102DD000AC4700002448000038B5EFF311851023FC
:102DE00083F31288BFF36F8F064B9C6801F06CFB76
:102DF00085F31188BFF36F8F2046BDE83840FFF799
:102E00003BBA00BFB802002038B5094B53F8204048
:102E1000013053F82050A54200D838BD636823B173
:102E2000204601F054FB0834F5E723689847FAE799
:102E30009853000001222DE9F043334B032087B063
:102E40001A70FFF7E1FF00F0A5FD01F05CFB042024
:102E5000FFF7DAFF2D4C2E4D2646AE4204F12C042E
:102E600016D300F04DFA4FF4806640F2E737274C56
:102E7000DFF8A080AC4227D300F056FAFDF714FB30
:102E8000254A137B23F00103137307B0BDE8F083D9
:102E900054F8083C059354F80C3C049354F8103C47
:102EA000039354F8143C029354F8183C019354F8DB
:102EB0001C3C009354E9092354E90B0100F0E4F8A9
:102EC00054F82C3C5E65C7E7A36A5A1C0DD000215C
:102ED000384623EAE373C3FB060151EA8323D4F89F
:102EE000009004D1484600F0DFFA2C34C2E74FF4DA
:102EF0007A720023FDF71CF902460B4609F118000F
:102F0000414600F05BFCF0E7EF020020044A0000BD
:102F1000044A00009B450000E000002008B503487B
:102F2000034A0021121A01F0EAFA08BD60000020ED
:102F3000F40200200023012270B586B0CDE90423FD
:102F40000F220193CDE9023214234FF4A0720E4DEB
:102F50000E4E03FB00550E4906EBC016044602FB5D
:102F600000110C4B3046009500F08EF8737B2C74EA
:102F700023F004037373084B013403EBC423EE60A6
:102F80006B6006B070BD00BFB8020020600000207A
:102F9000F80A002009450000F8020020BFB5002013
:102FA000FFF732FF304B03F5006282F3088883F3AA
:102FB0000A880025F0232D4C2D4F84F82230E57728
:102FC00025766576A576E576636A43F4E023636249
:102FD000636A43F400236362A563E3689BB243F032
:102FE000BF6343F40833E36084F82350FFF714F918
:102FF000FFF720FA4FF0FF33A362E362FFF7A6FB6F
:10300000FFF73CFA1B4800F07DF801F049FAFDF7A4
:1030100027FB0120FFF7F8FE0220174CFFF7F4FE14
:1030200000F0B6F9154B16495C61164B4FF48062FF
:10303000059301232046CDE90353CDE901553B46D5
:10304000009500F021F80646627B204622F004023B
:10305000627301F076FA2846FFF76CFF3A46314674
:103060002046FFF7C7F900BFF802002000ED00E09E
:10307000352E000060010020E0000020B802002092
:10308000380C0020F25400002DE9F043984685B03A
:1030900000F15803C0E91633109B00260373042384
:1030A000073222F0070543730F9B01EB05090F461A
:1030B00083734946C0E906668660C6730446FEF718
:1030C000F7FE0E9B073020F00700A066C4E91875D4
:1030D00002930D9BA9EB000901930C9B4A460093B8
:1030E000394643462046FFF769F9054B66659B68FC
:1030F00003B1DB6E4846E36605B0BDE8F08300BF70
:10310000B802002040F2011383810023C0E9183384
:10311000C366014B98607047B80200206FF00A0147
:10312000084A93689967084958674B6843F0805389
:103130004B60002383F31188BFF36F8F9368986F00
:10314000704700BFB802002000ED00E070B590F9B4
:103150000D20437B002A36DBD90634D11B4C63F0AB
:103160007F032246437352F8183FE169934207D127
:10317000C0E900210860E06111E09942F8D01B68C5
:10318000002BF5D090F90E5093F90E60B542F4D0B3
:10319000AE42F2DD5968C0E9003108605860A569A7
:1031A000954200D005B9E568A3685A7BD20604D1E0
:1031B000DA897F2A01D9AA6932B1AB4202D0284606
:1031C00000F05AFA656170BD6361FCE7B802002047
:1031D00038B590F90D200146002A437B04DA03F04C
:1031E0007F03437301F09BF90D4D2A4652F8184FA7
:1031F000AB68944200D004B9EC688B4207D05A7B8C
:10320000D20604D1DA897F2A01D9A2692AB1A34260
:1032100002D0204600F030FA23466B6138BD00BF73
:10322000B802002070B590F90D200146002A437BBA
:1032300004DA03F07F03437301F071F91C4C4B7BFC
:10324000224663F07F034B7352F8183FE0699342C4
:1032500007D1C1E900200160E16111E09842F8D096
:103260001B68002BF5D091F90E5093F90E60B54212
:10327000F4D0AE42F2DD5868C1E900300160596017
:10328000A569A368954200D005B9E5688B4207D0CF
:103290005A7BD20604D1DA897F2A01D9AA692AB1D8
:1032A000AB4202D0284600F0E7F92B46636170BDBF
:1032B000B802002049B9EFF3058030B9054B5A69CF
:1032C0009B689A4201D0FFF729BF81F31188BFF3B1
:1032D0006F8F7047B8020020034648B9EFF30582AC
:1032E00032B9064A51699268914201D0FFF716BF80
:1032F00083F31188BFF36F8F704700BFB8020020BF
:10330000EFF31181102383F31288BFF36F8F054B06
:103310009A68D37B013BD37381F31188BFF36F8F1E
:10332000704700BFB802002070B5EFF3118610237C
:1033300083F31288BFF36F8F144DAB68DA7B0132D1
:10334000DA732A4652F8184F944200D004B9EC6858
:103350005A7BD20604D1DA897F2A01D9A2692AB11F
:10336000A34202D0204600F087F923466B6186F322
:103370001188BFF36F8FEFF31180102383F312884E
:10338000BFF36F8FBDE87040FFF7A6BFB802002003
:10339000024B03F11802C3E906227047B80200206D
:1033A00070B5EFF31186102383F31288BFF36F8F8C
:1033B0001B4CA168E0690B68814214BF1A460022C9
:1033C00049680B605960A368E1692AB9154AC3E9E5
:1033D00000210B60E3610CE093F90E0092F90E50AE
:1033E000A84218D0854216DD5168C3E900210B6060
:1033F0005360A5690B4B9D4200D005B9E568A368F1
:103400009D4202D0284600F037F965613046BDE89C
:103410007040FFF783BE8A42D8D01268D5E700BF5C
:10342000B8020020D002002050EA01032DE9F0414B
:1034300005460E4604D1FFF7B3FF0020BDE8F0813A
:10344000831C71F1FF3324DB01F0FEF84419EFF324
:103450001188102383F31288BFF36F8F0F4F104B27
:10346000B8681860FFF7B4FEB8680E492A463346BC
:10347000183000F0A3F9BA684046537B43F00403C8
:103480005373FFF74BFE01F0DFF8201A20EAE070DB
:10349000D4E76FF00104241AD9E700BFB802002076
:1034A000D80200209B45000038B50446EFF3118593
:1034B000102383F31288BFF36F8F437B5B070FD515
:1034C000183001F0A0F8637B204623F004036373F7
:1034D000FFF73CFE2946BDE838400448FFF7EABE46
:1034E00085F31188BFF36F8F38BD00BFF002002055
:1034F000014B9868704700BFB80200202DE9F843DF
:103500000446077BEFF31186102383F31288BFF381
:103510006F8F437B190705D586F31188BFF36F8F33
:10352000BDE8F883D90943F0080261D14273A3686A
:1035300013B1204600F0FBFF04F1180001F063F81E
:10354000A56D04F15808A84511D04FF0000975B1D8
:10355000284600F0ECFF05F1180001F054F8284669
:10356000C5F87890FFF7F2FDA56DA845EFD1DFF81B
:10357000A080D8F808309C4242D1EFF30589B9F118
:10358000000918BF4FF00109D8F81850214A954298
:1035900000D00DB9D8F80C50AB4202D0284600F04C
:1035A0006BF8C8F81450B9F1000F02D01A48FFF7B1
:1035B000A9FDD8F808309C4225D1EFF3058313BB51
:1035C000227BD20706D583F31188BFF36F8F0423C4
:1035D000184602DF3046FFF7A1FDFB07A0D5002308
:1035E00083F31188BFF36F8F0423184602DF97E738
:1035F00003F07F0343F00803437300F090FF96E766
:103600004FF00009C0E786F31188BFF36F8FE4E73E
:10361000B8020020D0020020600100200122044BEB
:10362000C01A044BC0105843034B1A54704700BFD4
:10363000E0010020ABAAAAAAF0020020C3897F2BD8
:1036400012D80A4B1B6863B1094B90F90E201B6816
:103650009A4209DB437BDB0606D1064BC31A18BF2F
:10366000012303F0010070470023FAE7E002002085
:10367000DC0200206000002070B50E4B0E4C1E7C5A
:10368000054606EB460304EBC304204600F0BBFFEF
:1036900000220A4B28469A55FFF7D0FF48B1084B45
:1036A0002046BDE870401A680649013AD31700F079
:1036B00085B870BDB8020020E0010020F0020020B3
:1036C000E00200201D36000038B5EFF3118510230D
:1036D00083F31288BFF36F8F104B114A9C681068F8
:1036E000A04206D1FFF7C8FF85F31188BFF36F8FA3
:1036F00038BD00211B7C11600A4AD35C002BF3D03B
:103700002046FFF79BFF0028EED0637BDB0602D14B
:103710002046FFF787FD2046E4E700BFB8020020FF
:10372000D8020020F0020020074808B5074A0849DF
:10373000121A00F0E6FEBDE808400648064A0749AE
:10374000121A00F0DEBE00BF000000205D00002065
:1037500044550000000000200000002044550000F7
:10376000024B1868984208BF0020704744000020B0
:10377000034B1B680BB9FFF7F9BA0020704700BF75
:10378000E402002030B570B10B4B5B6898420AD060
:10379000036843B1D3E90421D0E90445121941EB90
:1037A0000501C3E90421D0E9003213605A60002307
:1037B000C0E9003330BD00BF44000020B3F1FF3F3B
:1037C00008BFB2F1FF3FF8B504461D4616465AD071
:1037D0008160EFF31187102383F31288BFF36F8F9B
:1037E000013275F1FF3321DA6FF001032B49D1E982
:1037F00000209B1A4FF0FF3262EB00009E1B60EB33
:103800000500012E70F1000301DA01260020C4E951
:103810000460FFF7A5FF224E84467068BCF1000FDC
:103820000DD1C4E90060046074601CE0FFF7A0FFE4
:10383000013645F10005361845EBE070E7E7DCE9B5
:103840000425D4E90431934271EB050E1CDAD21A37
:10385000DCF8043065EB0105CCE90425C4E900C3BC
:103860001C60CCF80440FFF77BFF844207D10D4B6E
:103870001C6824B900F0AEFE2146FFF73DFA87F33D
:103880001188BFF36F8FF8BD9B1A61EB050184456A
:10389000C4E90431C5D0DCF800C0BFE7F80100205E
:1038A00044000020E40200202DE9F047EFF31185E9
:1038B000102383F31288BFF36F8FDFF8A0900026E8
:1038C000C9F800000027FFF74BFFDFF89480D9F814
:1038D0000030D8E900ECD91750B1D0E90442A34236
:1038E00071EB020A1ADAE41A62EB0102C0E904423F
:1038F000002413EB0E034CEB0101C8E90031C9F8B9
:10390000004000F067FE2146FFF7F6F985F31188C5
:10391000BFF36F8FBDE8F047FFF7D6BE14EB0E0282
:103920004CEBE473C0E90467C8E90023FFF72AFF02
:1039300085F31188BFF36F8F83689847EFF3118584
:10394000102383F31288BFF36F8FD9F800301B1B4D
:10395000C9F80030FFF704FFB9E700BFE402002018
:10396000F801002010B5EFF31184102383F31288BF
:10397000BFF36F8FFFF7FCFE0346054AD2E9000153
:10398000181841EBE37184F31188BFF36F8F10BDFA
:10399000F8010020014800F0F5BA00BFF75400001C
:1039A0000CB430B589B005460C461C22002101A894
:1039B00000F05BFE022305958DF806300D4B029357
:1039C00023462CB1B4F1004F28BF4FF00043013B18
:1039D0001D440DAA0C9901A80695009200F00CF860
:1039E00014B1059B00221A7009B0BDE8304002B046
:1039F000704700BF3F4700002DE9F04F43688DB08E
:103A000015468046029383789A0740F10D81002481
:103A10000E78002E00F00A81252E0BD04B1C03934C
:103A2000013441463046029B98470028C0F2F68098
:103A30000399EDE74E788B1C252E0393F0D00027D9
:103A4000B946BB46BBF11F0F38D8A6F12003102B97
:103A50000AD8DFE803F02A09093009090921090910
:103A60000928092D09091F00A6F13003092B33D9B4
:103A70002A2E37D11BF0400F55F8043B40F08280CE
:103A8000002BA7BF4BF0200B9946C3F100094BF068
:103A9000280B01E04BF0010B039B13F8016B039320
:103AA000002ECFD130E04BF0020B4BF0040BF3E7CC
:103AB0004BF0080BF0E74BF0100BEDE7BBF17F0F7D
:103AC00019D8A6F13003092BD2D81BF0400F03D030
:103AD0000A2101FB0737DFE70A214BF0200B01FB2E
:103AE0000939D9E72E2E06D11BF0400F40F09E80F9
:103AF0004BF0400BD0E76C2E31D02BD8682E36D04F
:103B00006A2E3CD04C2E3AD0002F46F02003B8BF8E
:103B10002BF04002A3F16501BCBF00271FFA82FB16
:103B2000022901D9612B2FD107350727DFF8ACA275
:103B300025F0070508351BF0080F66D00AEB070BC8
:103B400056465E4563D1A4EB0A0AA9EB070906EBCA
:103B50000A026FE1742E9FD07A2E9DD0D4E71BF01D
:103B6000800F18BF4BF4007B4BF0800B94E71BF4E5
:103B7000807F18BF4BF4007B4BF4807B8CE74BF4C9
:103B8000207B89E71F4687E7A6F16301122900F22F
:103B9000F080DFE811F013004F00EE00EE00EE00C1
:103BA000EE004F00EE00EE00EE00EE00EE00FE0034
:103BB000E900EE00EE001B00EE00AF0055F8043BFC
:103BC00001270DF1180A8DF81830B4E755F804AB49
:103BD000834BBAF1000F08BF9A461BF0400F5046C6
:103BE00014BF39464FF0FF3100F047FD0746A2E70A
:103BF00041462020029B984700280FDB013EB74238
:103C0000F6D34C44B146A41B98E74E46F7E741462D
:103C100016F8010B029B9847002892DA98F80230B8
:103C200043F0040388F802304FF0FF3420460DB013
:103C3000BDE8F08F1BF0800F34D01BF4007F2CD038
:103C4000073525F00705AA4669685AF8080B2BF0D6
:103C500010050029ADB237DA404245F4806561EBCA
:103C600041010DF1180B0A235A4600F012FDA0EB9A
:103C70000B0301936B0662D5019B25F001019F4266
:103C800089B240F3A180002E00F0998015F0100257
:103C900040F09C80BB460D4623E0AA465AF8040B30
:103CA000C117D4E7AA461BF4807F5AF8041B01D140
:103CB0000846F5E71BF4007F19BF48B241F3C01175
:103CC00008B241F3C031C2E750EA0103C9D11BF089
:103CD000400FC6D0002FC4D12BF01102BB46019774
:103CE00095B240F2064115EA01021CBF0BF1010B2F
:103CF00000222CE02BF010020A231FFA82FB1BF09B
:103D0000800C49D01BF4007115BF0735AA4625F079
:103D100007055AF8040B1EBFAA4669685AF8080B33
:103D200050EA010545D12BF016051BF0400FADB24E
:103D300042D0002F40D12BF01702019795B215F019
:103D4000100248D0019B002E42D103F1010B29073C
:103D50005AD4EB0706D5D9456FDDA9EB0B030199C2
:103D6000CB465F185B4649E04BF0100B10237826DA
:103D7000C5E7782B04D1C6F1780343F01003BEE702
:103D800041462520029B98470028FFF647AF0234A2
:103D900047E608230026B2E7AA461BF480715AF8CA
:103DA000040BBDD01BF400711ABFC0B2614680B2D3
:103DB000B6E72BF0060295B20DF1180B54E725F08B
:103DC0001105BB46ADB28CE70D46B8E73B460D4644
:103DD00003F1020BBBE7DDF804B082E739550000C0
:103DE00032550000CDE9043241462020029B98471D
:103DF0000028FFF613AF049B059A01339945F1DCC7
:103E0000A4EB0B019B46CC180AB341463020029B21
:103E100098470028FFF602AF8EB901342744391BBA
:103E2000019B994224DC1D4655BB019AA9EB0B0965
:103E3000554622441446914433E0019F92E70234F0
:103E400041463046029B98470028E7DAE6E640F212
:103E500006410D42E2D015F0020F04F10104414683
:103E600014BF2B20202015F4806F18BF2D20E9E708
:103E700041463020029B013498470028CFDACDE636
:103E800006AB013D4146585D029B98470028CBDABE
:103E9000C4E641462020029B013498470028FFF6E3
:103EA000BDAEA9EB0403002BF3DCC1E5704700EBCA
:103EB000C100408840087047F8B50346FFF7F7FF98
:103EC000B0FA80F0C0F11F0003EB800CDCF810604A
:103ED000CA00171D0C4606328DB256B9012101FAEF
:103EE00000F0D9680143D960CCF81040DD539D52F1
:103EF000F8BDF1000431585AD85303EBC0009E526C
:103F0000C5805D52F4E7043A2DE9F041CC1D11441F
:103F100024F0070421F007010E1BF708B7FA87F217
:103F20004FF00008C2F12405AD000735C2F12002B0
:103F3000ED0804604146A760C4F80C80920004F1CB
:103F4000100000F092FB6B0043F0010363807B1BC9
:103F500004EBC5025900A4F800805180A21924F88E
:103F60003550A2F80280A35304EBC7035A882946B0
:103F700042F001025A802046BDE8F041FFF79CBFA5
:103F8000002070470FB407B504A951F8040B019144
:103F9000FCF72AFB03B05DF804EB04B070477047F0
:103FA00000F006B80121FCF7CDBB0021FCF7CABB2D
:103FB00000207047FCF7E6BB08B500F0ADFDBDE89A
:103FC00008400021FCF792BF0029CCBF012100214D
:103FD000FCF78CBF02214FF42070FDF7F5BA704753
:103FE000704770B5054614460E4601F083F82B68FD
:103FF0005C4034405C402C60BDE8704001F075B816
:104000004FF0B0435A6812B19A6A002AFAD1704749
:10401000012200F580535A60CB43934003F00A031A
:104020004361416111B900F50050426070478369F6
:104030001B06FCD5406AC0B2704783695B06FCD59D
:10404000C1637047FEF770B9012801D1EFF3058312
:10405000FEF7C2BE01460068FFF7F6BF08B5FDF7E0
:1040600023FFBDE80840FDF743BF00210120FFF713
:10407000EBBF036E83F30B88704761B662B680F3C3
:104080001188BFF36F8F704772B6002383F31188D6
:10409000BFF36F8FBFF34F8F30BF62B6BFF36F8F29
:1040A000704740E800F313F4803FD8B208BF6FF0C8
:1040B0001500704730B50C684B6885B00A894D898A
:1040C0000094013B24F01F04234402F01F0242EA43
:1040D000451223F01F0369468DF808200393FEF76D
:1040E00003FA05B030BD08B5FEF7BEFB002008BDE1
:1040F00008B50B461146187900F03CFF002814BFA4
:104100006FF08500002008BD0B684268591C14D070
:1041100013F4E07FC3F3821103D001290AD00120F8
:1041200070471268506E03F03F03D84000F0010062
:10413000013070471268906EF5E70320704708461B
:1041400008B5FFF732FF002814BF6FF0850000208C
:1041500008BD10B50C46FFF7D7FF022808D020464F
:10416000FFF720FF002814BF6FF08500002010BD6E
:104170006FF07700FBE708B5FFF712FF002008BDDE
:104180003022436800201B79534303F1A04303F519
:1041900070335B690B607047436830201B79434381
:1041A00003F1A04303F57033186942400A404240CE
:1041B0001A61002070473022436800201B79534366
:1041C00041F2100203F1A04303F570339950704798
:1041D0003022436800201B79534342F2100203F15E
:1041E000A04303F570339950704730224368002094
:1041F0001B79534343F2100203F1A04303F57033DC
:104200009950704710B503695868F8B1884219D1C0
:104210009C680868A142586000D19860002008603E
:104220002AB15A680A609A68596002B999600020F8
:1042300010E0814206D10868206098688142EDD183
:104240009C60EBE7044600680028F2D1002AE8D120
:104250006FF0150010BD10B543681446187993032C
:104260001DD5930719D512F0040F14BF082206229A
:1042700014F400231FD164030BD43023102413FB48
:10428000004303F1A04303F570331B68CB4003F0F8
:104290000103FDF777FC002010BD0422E8E712F4CB
:1042A00080320AD014F0100209D114F0200308D093
:1042B00013460222EDE70123EBE71346E9E701236A
:1042C000F7E70122E5E730B5036813600579046874
:1042D00004EBC504A34202D36FF0010030BD5C794A
:1042E0008C4201D00833F0E70020F7E743681B69F0
:1042F0009A6C03F50053C2F30010D10548BF40F09B
:10430000020092054FF4447248BF40F004009A64E2
:10431000704730B545680020904203DA2B699C69EC
:10432000640600D430BD0C5C0130DC63F4E730B5CA
:1043300045680020904203DA2B699C69240600D46A
:1043400030BD5B6A0B540130F4E743681A69D36CE3
:1043500043F00303D364704743681A69D36C23F0B6
:104360000303D3647047012243681B69986C03F50B
:1043700000539A641040704743681B69D86C9B6C6B
:104380001840C0F34000704743681A69D36C43F08B
:104390000403D364704743681A69D36C23F00403A1
:1043A000D364704743681A69D36C43F44473D3648D
:1043B000704743681A69D36C23F44473D36470471D
:1043C000012070470369C3E901127047026953680D
:1043D0000BB1916818477047036900201B681A6881
:1043E0000A601A790A715A794A719A798A71DB7965
:1043F000CB71704743681869FFF71FBE10B543685B
:104400000C46186983691B0604D5FFF710FE20705F
:10441000002010BD4FF0FF30FBE7002208B5114629
:104420000F20FDF78FFF002210201146FDF78AFFB5
:104430000F20FDF779FFBDE808401020FDF774BF9D
:1044400043681B69D86C10F004001CBF986CC0F363
:104450008000704708B50246FFF78EFF30B910465E
:10446000FFF7EEFF003818BF012008BD0120FCE770
:1044700010B50C4600F02DFE04F10802D2E8AF3F63
:104480002168C01AB0FBF1F000FB0133D2E8EF1F46
:10449000C2E8E43F002CF9D1BDE81040FFF704BAB0
:1044A000704740B1C368587810F001001EBF1878FB
:1044B000B0FA80F040097047EFF31183102383F3C3
:1044C0001288BFF36F8FFEE708B5FFF7F5FF10B551
:1044D000D0E9003433B90020E268537843F0010397
:1044E000537010BD204698470028F4D00028B8BF6C
:1044F0004042FF28A8BFFF20E3681870ECE700F0F7
:10450000B4B800F0A5B87047102408B5EFF31183D4
:1045100084F31288BFF36F8FFFF7B6FDF6E7D0E99B
:10452000003213605A600023C0E90033704708B5B9
:10453000FFF7F5FF437B23F00203437300238360FF
:1045400008BD10B5EFF31184102383F31288BFF375
:104550006F8FFEF7FBFD84F31188BFF36F8F10BDE3
:10456000014610B5EFF31184102383F31288BFF3D3
:104570006F8F437B13F0280F0AD183680BB1FFF7CD
:10458000D6FF4B7B084623F004034B73FEF7DEFD9A
:1045900084F31188BFF36F8F10BD01211838FFF726
:1045A000DFBF38B50C460546FEF73EFFB4F1FF3FCE
:1045B00008BFB5F1FF3F1FBF40F2FF3300224FF4A9
:1045C0007A71C0FB013216BF980A4FF0FF3040EA03
:1045D000825038BD10B5FFF7C3F80446FFF7C8F89E
:1045E00074B1D4E904321B1A62EBE072B3F1004FEC
:1045F00072F1000104DA002AACBF1846002010BD99
:104600006FF00040FBE7024638B5EFF31185102349
:1046100083F31288BFF36F8F036893B1FFF7A0F89D
:1046200004461046FFF7AEF8844204D1FFF7D2FFEC
:104630000021FEF761FB002085F31188BFF36F8F27
:1046400038BD6FF01500F7E708B5FFF78BF908BD27
:104650000A44431E914200D1704710B511F8014B36
:10466000914203F8014FF9D110BD02440346934231
:1046700000D1704703F8011BF9E70246014410B569
:104680008A42134603D01C780132002CF8D1181A44
:1046900010BDF0B5C3F13707044603F01F03104601
:1046A000FFB2082BE6B232D0102B3DD06508A4082B
:1046B00045EAC17544EA81748A082D1942EB51021A
:1046C000290941EA02716D1842EB1212290A41EAE6
:1046D00002616D1842EB1222290C41EA02416D1869
:1046E00042EB1242AD1842F10002EC0844EA427477
:1046F000D10804EB8402A6EB4205EDB2092D0CD9DA
:104700000134A5F10A0541F10001EDB212E0E4081F
:1047100006F0070544EA4174C908303554EA01023D
:1047200000F8015BBDD1F0BD240906F00F0544EA95
:1047300001740909092D84BFED19EDB2EDE7D1E946
:10474000043293421EBF5A1C0A6118707047000061
:0C47500001480068704700001C020020B7
:08475C0008BAFF7F0100000014
:1047640077410000AC47000081290000C0470000E9
:10477400B12B0000D4470000B52800000000000061
:10478400812C0000000000009128000000000000BF
:10479400B929000010480000492A0000E847000039
:0847A400352A0000FC4700006B
:1047AC00AA540000545300004C4A00005100002051
:1047BC0000000000D5540000E3540000044A00003F
:1047CC005900002074020020E354000070530000D4
:1047DC00684A00005B0000202C000020B954000047
:1047EC0058530000284A00005300002044020020C7
:1047FC00C754000060530000284A000055000020F8
:10480C0054020020D554000068530000284A0000D0
:08481C00570000206402002097
:10482400000000006B400000000000006B4000002E
:10483400000000006B400000000000006B4000001E
:10484400000000006B400000000000006B4000000E
:10485400000000006B400000000000006B400000FE
:10486400000000006B400000000000006B400000EE
:10487400000000006B400000000000006B400000DE
:1048840000000000410A0000000000006B4000002E
:10489400000000006B400000D4470000CD4300003E
:1048A400D4470000CD430000000000006B4000002E
:1048B400000000006B400000000000006B4000009E
:1048C400000000006B400000000000006B4000008E
:1048D400000000006B400000000000006B4000007E
:1048E400000000006B400000C0470000CD2900001C
:1048F400C0470000CD290000000000006B4000000C
:10490400000000006B400000000000006B4000004D
:10491400000000006B400000000000006B4000003D
:10492400000000006B400000000000006B4000002D
:10493400000000006B400000000000006B4000001D
:10494400000000006B400000000000006B4000000D
:10495400000000006B400000000000006B400000FD
:10496400000000006B400000000000006B400000ED
:10497400000000006B400000000000006B400000DD
:10498400000000006B400000000000006B400000CD
:10499400000000006B400000000000006B400000BD
:1049A400000000006B400000000000006B400000AD
:1049B400000000006B400000000000006B4000009D
:1049C400000000006B400000000000006B4000008D
:1049D400000000006B400000000000006B4000007D
:1049E400000000006B400000000000006B4000006D
:1049F400000000006B400000000000006B4000005D
:104A040000000000000000000000000000000000A2
:104A1400000000000000000000000000054200004B
:104A2400000000005742000081410000994100004D
:104A3400B7410000D1410000EB410000052900000E
:084A4400054200000000000023
:104A4C00534100003F41000000000000F140000015
:0C4A5C0009410000000000000000000004
:104A6800FD430000F5430000ED420000ED2A000080
:104A7800D9430000134300002F4300004B430000BC
:104A88005943000079430000894300009743000020
:104A98006743000041440000A5430000B343000001
:0C4AA80055440000C1430000C54300005D
:104AB400014B1868704700BF10000020084B1B6FA3
:104AC40003F00703022B04D0032B05D0012B05D0E0
:104AD400FEE7044B18687047034BFBE70348704735
:104AE400008000501000002018000020002D31012B
:104AF40008B5FFF7E3FF054B1B6FC3F30333013323
:104B0400B0FBF3F0024B186008BD00BF00800050FA
:104B14000C0000200048704700B4C40400487047EB
:104B2400002D3101014B1868704700BF18000020A8
:104B3400014B1868704700BF1400002010B50446EC
:104B440000F0D6FA4FF0B042936A1907FCD4136A06
:104B5400116C5269520604D4CA1A032A01D8994224
:104B64000ED1E21A022A98BFDC1CB4F1FF3F38BF11
:104B7400013C4FF0B0431C649A6942F040029A61D0
:104B840000F0B1FA054A13783BB14FF0B041CB6B5A
:104B940043F00203CB630023137010BD50000020C8
:104BA40007B5044B01A9187900F0E2F9019803B0A4
:104BB4005DF804FB80510000820700F001030AD570
:104BC4000121084A43F0400311704FF0B041CA6B11
:104BD40022F00302CA634FF0B0418A6922EA030358
:104BE4008B61704750000020830742BF4022014B75
:104BF4005A6170470010005830B50F4C416123686A
:104C040093B9206083600EE0891A41619A681D4659
:104C140072B113465A698A42F6D93DB1A8608360DD
:104C24005A69521A5A6130BD0025F3E72060F6E74D
:104C340098608260F7E700BF100200200D490B68FE
:104C4400A0B10022A3B1834203D1836822B90B60CF
:104C540003E01A469B68F5E7936083680BB900206C
:104C640070475A6941690A445A61F8E7222070473B
:104C7400022070471002002038B500F0D2F9002558
:104C8400084B094C1A682368C31A2AB123B1516925
:104C9400994203D3C91A5161206038BD55615B1A2A
:104CA4009268F2E7100200200C02002038B5154D7E
:104CB4002B682BB35B69A3B1134A022014681C440C
:104CC40000F0B6F92046FFF739FF00230F492A68A0
:104CD4000B7022B1D08880070AD501230B70002005
:104CE40038BD022000F0A4F90220FFF77DFFECE7B5
:104CF4009268002AF3D050690344012BEAD9EEE705
:104D04002220EDE7100200200C020020E90200201E
:104D140070B516469DF81420C0E903360271049A52
:104D2400BDF818300260002204460D468260C3803C
:104D3400EEB900F076F92844A0619DB12E4600F04A
:104D4400D7F90546FFF798FF31462046FFF754FF91
:104D5400104B1B68A34201D1FFF7A8FF284600F0BF
:104D6400C2F902E0E36865617BB9002070BD00F020
:104D740058F93044A061002DE0D1E3686561002B4F
:104D8400DDD0204621689847D9E720462168984716
:104D9400EBE700BF1002002038B5044618B300F05A
:104DA400A7F90546FFF768FF104B1868A04209D021
:104DB4002046FFF743FF044680B1284600F093F9EC
:104DC400204638BDFFF73AFF04460028F5D1FFF727
:104DD4006DFF222802D10220FFF7EEFE284600F0E4
:104DE40082F90024ECE72224EAE700BF1002002045
:104DF40038B50C460546A8B1A1B100230B7000F0EC
:104E040080F90121084B1B6833B900F075F90020C3
:104E140038BD9D4204D121702278002AF9D0F4E7EC
:104E24009B68F1E72220F3E710020020014B186889
:104E3400704700BF14020020C2072DE9F84304465E
:104E440007D5444A136801331360FFF715FFFFF7D2
:104E54002DFFA3077CD500F054F94FF00008054658
:104E64004646FFF709FF3C4F3C680CB16369A3B1A8
:104E740000223A4B012E1A7003D118F0020F18BF0A
:104E84001E70FFF713FF222802D10220FFF794FEC1
:104E94002846BDE8F84300F02FB923465A693AB9C9
:104EA4001A792179914288BF1C469B68002BF5D161
:104EB400284600F021F92569DDB100F0B2F8A269B5
:104EC400A0EB02084FEAE873A84573F1000311DB75
:104ED40023691344A361E36813B12046216898470A
:104EE400B4F8068000F00DF901360546FFF7C4FE5C
:104EF400BAE7A84600F005F981462046FFF79EFE72
:104F0400484600F0F9F82369002BE4D0A38BB5EBF5
:104F1400080533B1E28B13449BB2B3F57A7F0FD209
:104F2400E38300F0EEF8804629462046FFF764FE4E
:104F3400A369226940461344A36100F0DDF8CAE77F
:104F4400A3F57A73E383A369013D013BA361E8E719
:104F5400BDE8F8831802002010020020E8020020B7
:104F6400002070474FF4004070474FF47A70704748
:104F740009B100F002B82220704770B506460D460C
:104F840000F0BFF804461C2E48D8DFE806F00F18DE
:104F9400471D20234726292C47472F3247353847BA
:104FA4003B473E474447474747474100FFF786FD95
:104FB40000262860204600F09FF8304670BD4FF46C
:104FC400C070FBF7D7FFF3E74FF42070F9E74FF415
:104FD4004070F6E74FF46070F3E74FF40070F0E7C9
:104FE4004FF48060EDE74FF49060EAE74FF4C0605F
:104FF400E7E74FF4F060E4E74FF4B060E1E74FF423
:10500400D060DEE74FF4E060DBE74FF4A060D8E760
:105014004FF48070D5E74FF40860D2E700202126D2
:10502400C7E74FF0B0439A6A1207FCD4186A704776
:1050340082074FF0B04200F00103916948BF43F08A
:1050440040030B43936170472DE9FF410D4616461B
:105054001F460446A8B14FF00008C0F81C80FFF7B3
:105064009BFEBDF82C30424602939DF82830294619
:10507400CDE9007320463346FFF74AFE04B0BDE88D
:10508400F0812220FAE7F0B51F46002387B00D46D1
:10509400164604468DF81730A8B1C3610DF1170107
:1050A400FFF7A6FE9DF817207AB9BDF834302946DB
:1050B40002939DF830302046CDE900733346FFF764
:1050C40027FE07B0F0BD2220FBE70320F9E738B53F
:1050D40000F017F80546FFF7A4FF0446284600F041
:1050E4000BF8204638BD10B962B6BFF36F8F704716
:1050F400EFF3108072B6704780F31188BFF36F8F9F
:0E5104007047EFF31180302383F3118870475A
:10511400012600000400000000000000000100005F
:10512400000000000B0000000B0000000200000063
:105134000000202000000000030000008C8C3C00D4
:105144000000000000000000000000000500000056
:105154000000000000C20100000500000010000073
:105164000000000000000000010000000500020033
:1051740000030001030401010109030000000058B9
:10518400120000008C5100001E000000A0BB0D00A6
:10519400C07A1000001F408240420F00C07A100005
:1051A40020D613003A1F41A20000000020D61300AD
:1051B400905817003A1F42A20000000090581700B0
:1051C40040771B003A9F43B60000000040771B0065
:1051D40070CE2000001F408180841E0070CE20000D
:1051E40040AC27003A1F41A10000000040AC27005A
:1051F400108A2E003A1F42A100000000108A2E00DF
:1052040080EE36003A9F43B50000000080EE360081
:10521400E09C4100001F408000093D00E09C4100EB
:1052240080584F003A1F41A00000000080584F00F2
:1052340020145D003A1F42A00000000020145D000D
:10524400C0047700009F43B4C0CF6A00C004770055
:10525400408995003A9F44B40000000040899500BD
:10526400C00DB4003A9F45B400000000C00DB40066
:1052740000BADB00009F66B4405DC60000BADB00E4
:1052840080730601009F67B40024F4008073060154
:1052940020992C01009F68A8C0EA210120992C01C3
:1052A400C0286B013A9F89B800000000C0286B0138
:1052B40060EDB501009F8AB880BA8C0160EDB5013C
:1052C40080011302009FABB80048E801800113027B
:1052D40080138D02009FCCA880D5430280138D02D9
:1052E400805A1303009FEDAC006CDC02805A130358
:1052F40020289B03009FEEBC007E560320289B03BE
:10530400C0C95304009FEFBC0090D003C0C953042C
:1053140000B4C404009FF0CC00B4C4040000002016
:1053240000000000060001000200000034530000E9
:10533400000000009B54000006000000E0FF07008E
:1053440000000020A354000021000000E07F0020A2
:1053540000800050FFFFFFFF02000000FFFFFFFF7F
:1053640001000000FFFFFFFF000000008853000061
:10537400AC470000090000000300000000000650D4
:105384001B4400009053000001000000B0530000D3
:1053940002000000644700006447000084470000E6
:1053A4008C470000AC470000AC4700007F000005BC
:1053B400040604017F0000060204010144657669C5
:1053C40063652025732073656E743A202225732249
:1053D4000A004465766963652025732072656365F8
:1053E400697665643A20222573220A005541525495
:1053F4005F3000554152545F3200554152543020C1
:10540400646576696365206E6F7420666F756E647B
:105414000A00554152543220646576696365206EF2
:105424006F7420666F756E640A00436F756C642038
:105434006E6F7420636F6E6669677572652064654C
:10544400766963652025730A0048656C6C6F206675
:10545400726F6D206465766963652025732C206EF8
:10546400756D202564000A4368616E67696E672064
:105474006261756472617465206F6620626F74681E
:105484002075617274206465766963657320746F36
:10549400202564210A0A00464C4153485F300053DA
:1054A40052414D5F3000636C6F636B403530303078
:1054B40038303030006770696F40353030336330D6
:1054C4003630006770696F403530303363303330C5
:1054D400006770696F4035303033633030300075A9
:1054E40073617274403530303630303030006D6165
:1054F400696E002A2A2A20426F6F74696E67205AE7
:105504006570687972204F53206275696C642076E7
:10551400342E302E302D343939372D6734626235CC
:105524003935373138646136202A2A2A0A00286E30
:10553400756C6C29002A666C6F61742A0000000087
:1055440000C2010000010300813F0000C0EA210104
:10555400C0EA21010080000000F0490200000000C0
:10556400E7400000000000000000000038000020B8
:10557400000000000000000000C201000001030060
:10558400008000004400002044000020FFFFFFFFD3
:015594000115
:0C5595000000000000000000000000000A
:0455A10015E015E01C
:040000030000224D8A
:00000001FF
